:020000040000FA
:060000000A128A11122809
:10000800FE00030EF6000408F7000A08F800831241
:1000180003137F08F9000A128A15B7290A128A11F0
:10002800152883135F30FD000830FE007930FF008B
:10003800503084000A128A11EA270A128A113D30C8
:10004800840050300A128A1548200A128A11FA01CF
:10005800FB01FC0183010A128A154C2C3228FF008F
:1000680000308A007F08820738280A128A15E72993
:1000780083120313A40036290630200203184528EA
:10008800462871282103031D4A284B285B28013084
:10009800A200200A51280310A20DFF3E031D4F287D
:1000A8002208A30023088316031385044F29210877
:1000B800031D5F28602871280130A200200A6628E5
:1000C8000310A20DFF3E031D64282208FF3AA30077
:1000D80023088316031385055A284F290830200260
:1000E80003187728782871282103031D7C287D2888
:1000F8008D280130A200200A83280310A20DFF3E9C
:10010800031D81282208A3002308831603138604ED
:100118005A282108031D9128922871280130A2002D
:10012800200A98280310A20DFF3E031D96282208D6
:10013800FF3AA30023088316031386055A280830BC
:1001480020020318A828A92871282103031DAD2817
:10015800AE28BE280130A200200AB4280310A20D40
:10016800FF3E031DB2282208A300230883160313A9
:1001780087045A282108031DC228C3287128013082
:10018800A200200AC9280310A20DFF3E031DC7289C
:100198002208FF3AA30023088316031387055A2869
:1001A800083020020318D928DA2871282103031DF2
:1001B800DE28DF28EF280130A200200AE5280310F6
:1001C800A20DFF3E031DE3282208A300230883167F
:1001D800031388045A282108031DF328F4287128DA
:1001E8000130A200200AFA280310A20DFF3E031DC9
:1001F800F8282208FF3AA30023088316031388056A
:100208005A280330200203180A290B2971282103D0
:10021800031D0F29102920290130A200200A1629C0
:100228000310A20DFF3E031D14292208A300230872
:100238008316031389045A282108031D2429252914
:1002480071280130A200200A2B290310A20DFF3EBD
:10025800031D29292208FF3AA30023088316031344
:1002680089055A282408A200A3012308003A031983
:100278003E2971282208003A03194028013A031937
:100288007228033A0319A328013A0319D428073A14
:10029800031905297128080083120313A400C73025
:1002A800A20022089F052408A20002300310A20D14
:1002B800FF3E031D5A290310220DA30023089F04A3
:1002C800F030A2002208831603139F05322A200863
:1002D800031D6F29702977290F30A2002208831681
:1002E80003139F047D290E30A200220883160313EE
:1002F8009F040514562A2008031D83298429902960
:100308002108031D8829892990290D30A200220877
:10031800831603139F049F292008031D94299529F8
:100328009C290530A2002208831603139F049F29E5
:10033800831603131F158514562A2008031DA529A3
:10034800A629AD290330A2002208831603139F04AF
:10035800B029831603139F140515562A8316031311
:100368001F158515562A2008031DBB29BC29C82935
:100378002108031DC029C129C8290C30A200220860
:10038800831603139F04D7292008031DCC29CD29E0
:10039800D4290330A2002208831603139F04D72907
:1003A800831603139F148516562A2008031DDD297A
:1003B800DE29EA292108031DE229E329EA290B306D
:1003C800A2002208831603139F04FC292008031D9A
:1003D800EE29EF29F6290A30A20022088316031312
:1003E8009F04FC290930A2002208831603139F04E6
:1003F8000914562A2008031D022A032A0C2A210858
:10040800031D072A082A0C2A831603139F15142A8A
:100418002008031D102A112A142A831603131F14F7
:10042800831603138914562A2008031D1C2A1D2A23
:10043800262A2108031D212A222A262A8316031385
:100448009F152E2A2008031D2A2A2B2A2E2A8316B6
:1004580003131F14831603130915562A8312031353
:100468002408A200A3012308003A03193C2A562AAB
:100478002208003A03196B29013A03197F29033A24
:100488000319A129013A0319B229073A0319B7290F
:10049800013A0319D929033A0319FE29013A031924
:1004A800182A562A080083120313A4003D2B06308D
:1004B80020020318602A612A882A2103031D652A5D
:1004C800662A742A0130A200200A6C2A0310A20DA1
:1004D800FF3E031D6A2A2208A30023088504562B21
:1004E8002108031D782A792A882A0130A200200AC7
:1004F8007F2A0310A20DFF3E031D7D2A2208FF3A22
:10050800A30023088505732A562B083020020318F8
:100518008E2A8F2A882A2103031D932A942AA22A25
:100528000130A200200A9A2A0310A20DFF3E031DE3
:10053800982A2208A30023088604732A2108031D89
:10054800A62AA72A882A0130A200200AAD2A031069
:10055800A20DFF3E031DAB2A2208FF3AA300230881
:100568008605732A083020020318BB2ABC2A882A69
:100578002103031DC02AC12ACF2A0130A200200A64
:10058800C72A0310A20DFF3E031DC52A2208A30097
:1005980023088704732A2108031DD32AD42A882A0A
:1005A8000130A200200ADA2A0310A20DFF3E031D23
:1005B800D82A2208FF3AA30023088705732A08309F
:1005C80020020318E82AE92A882A2103031DED2AB4
:1005D800EE2AFC2A0130A200200AF42A0310A20DF8
:1005E800FF3E031DF22A2208A30023088804732A69
:1005F8002108031D002B012B882A0130A200200AA4
:10060800072B0310A20DFF3E031D052B2208FF3AFE
:10061800A30023088805732A033020020318152B2A
:10062800162B882A2103031D1A2B1B2B292B01307B
:10063800A200200A212B0310A20DFF3E031D1F2B31
:100648002208A30023088904732A2108031D2D2BDF
:100658002E2B882A0130A200200A342B0310A20D69
:10066800FF3E031D322B2208FF3AA3002308890509
:10067800732A2408A200A3012308003A0319452B72
:10068800882A2208003A03195B2A013A0319892AA1
:10069800033A0319B62A013A0319E32A073A031958
:1006A800102B882A08000A128A156C200A128A114F
:1006B8000A128A1562200A128A110A128A1559200A
:1006C8000A128A11023083120313B6003608A000FA
:1006D800A10102300A128A113C200A128A118312DF
:1006E8000313A001A00AA101A10A02300A128A116B
:1006F80050210A128A1105300A128A117B270A1220
:100708008A11053083120313B6003608A000A10130
:1007180002300A128A113C200A128A11033083120D
:100728000313B6003608A000A10101300A128A118D
:100738003C200A128A11043083120313B6003608CB
:10074800A000A10101300A128A113C200A128A1164
:10075800053083120313B6003608A000A10101304A
:100768000A128A113C200A128A11063083120313D6
:10077800B6003608A000A10101300A128A113C20F7
:100788000A128A11073083120313B6003608A00034
:10079800A10101300A128A113C200A128A11023082
:1007A80083120313B6003608A000A101A10A013084
:1007B8000A128A113C200A128A1183120313A0011B
:1007C800A00AA101A10A01300A128A113C200A12CA
:1007D8008A1183120313A001A101A10A01300A1290
:1007E8008A113C200A128A110A128A152D200A122F
:1007F8008A110A128A1531200A128A1101300A1246
:100808008A1540200A128A11023083120313B60097
:100818003608DA000A128A159D240A128A110A1269
:100828008A1550200A128A110A128A152B200A12D8
:100838008A11080083120313AA002A08031D252C15
:10084800262C402C0230A9002908A000A101003064
:100858000A128A113C200A128A11023083120313E9
:10086800A9002908A000A101A10A00300A128A11D2
:1008780057220A128A114B2C0230A9002908A0001D
:10088800A10100300A128A1157220A128A11831212
:1008980003132608031D512C522C6C2C0330A9007D
:1008A8002908A000A10100300A128A113C200A126E
:1008B8008A11033083120313A9002908A000A1019B
:1008C800A10A00300A128A1157220A128A11772CBB
:1008D8000330A9002908A000A10100300A128A11DA
:1008E80057220A128A11831203132708031D7D2C2D
:1008F8007E2C982C0430A9002908A000A101003002
:100908000A128A113C200A128A1104308312031336
:10091800A9002908A000A101A10A00300A128A1121
:1009280057220A128A11A32C0430A9002908A00012
:10093800A10100300A128A1157220A128A11831261
:1009480003132808031DA92CAA2CC42C0530A900C0
:100958002908A000A10100300A128A113C200A12BD
:100968008A11053083120313A9002908A000A101E8
:10097800A10A00300A128A1157220A128A11CF2CB2
:100988000530A9002908A000A10100300A128A1127
:1009980057220A128A1108000A3083120313A00092
:1009A8000030A1004808A3004708A2000A128A15CF
:1009B8002B230A128A11831203132008A80028087F
:1009C800DD005D085E020318EA2CEB2C192D0730B8
:1009D800A8002808A000A101A10A01300A128A1162
:1009E80057220A128A11023083120313A80028081A
:1009F800A000A101A10A02300A128A1157220A1284
:100A08008A11053083120313A8002808A000A10149
:100A180002300A128A1157220A128A1114308312DC
:100A28000313A8002808C900802D5E085D0203187A
:100A38001E2D1F2D682D0230A8002808A000A10136
:100A480002300A128A1157220A128A1105308312BB
:100A58000313A8002808A000A101A10A02300A1265
:100A68008A1157220A128A110A308312031349067F
:100A7800031D3F2D402D532D0730A8002808A00046
:100A8800A101A10A01300A128A1157220A128A11F9
:100A9800013083120313A8002808C907802D1430D9
:100AA8004906031D582D592D4C2D0730A80028083C
:100AB800A000A10101300A128A1157220A128A11D4
:100AC80083120313C901802D0230A8002808A00052
:100AD800A10102300A128A1157220A128A1105301E
:100AE80083120313A8002808A000A10102300A12EB
:100AF8008A1157220A128A11080083120313A300CD
:100B0800F22D2003031D892D8A2D912D3F30A10040
:100B180021088316031385040B2E2008031D952D29
:100B2800962D9D2DC030A10021088316031385053D
:100B3800902D0B2E2003031DA22DA32DAA2DFF30CF
:100B4800A1002108831603138600902D2008031D99
:100B5800AE2DAF2D9D2D8316031385010B2E20037B
:100B6800031DB72DB82DBF2DFF30A1002108831616
:100B780003138700902D2008031DC32DC42D9D2D20
:100B88008316031387010B2E2003031DCC2DCD2DB7
:100B9800D42DFF30A1002108831603138800902D5F
:100BA8002008031DD82DD92D9D2D831603138801E8
:100BB8000B2E2003031DE12DE22DE62D83160313D2
:100BC8008915902D2008031DEA2DEB2D9D2DF83059
:100BD800A1002108831603138905902D2308A1007D
:100BE800A2012208003A0319FA2D9D2D2108003A86
:100BF8000319852D013A03199E2D033A0319B32DC4
:100C0800013A0319C82D073A0319DD2D9D2D080057
:100C1800831203134D08031D122E132E952E0A124C
:100C28008A1598200A128A110A128A15FE230A12B6
:100C38008A11831203132008AB002108AC000310AB
:100C4800AC0CAB0C2B08AD002D08B10029303102DB
:100C580003182F2E302E382E3108AB00AC012B088C
:100C6800AF002C08B0003F2E3108FF3EAF00FF3028
:100C780003180030B0002F08AB002B08B1000A3071
:100C88004C020318482E492E632E3108AB00AC01E4
:100C98002B08C7070318C80A2C08C8073108AB0077
:100CA8004C083D3E84002B08831380000130AB00C4
:100CB8002B08CC075E08AB002B08DD00912E4B08F3
:100CC8003D3E84003108AB00AC012C08AE00831314
:100CD80000082B02AD00031CAE0347082D07C70010
:100CE80048080318480A2E07C8003108AB004B080B
:100CF8003D3E84002B08800009304B06031D852EDD
:100D0800862E882ECB018C2E0130AB002B08CB070A
:100D18000A128A11D0240A128A1183120313CD01F0
:100D2800CD0A080083120313A601A60AA701A70A81
:100D3800A801A80A01300A128A111E240A128A116F
:100D4800831203134E08031DAA2EAB2EE12EA90110
:100D5800A90A0A30A0000030A1005D08B900BA0154
:100D68003908A2003A08A3000A128A152D270A1288
:100D78008A118312031320080A128A15A1220A1263
:100D88008A1183120313A601A701A70AA801A80ABA
:100D980001300A128A111E240A128A1183120313BF
:100DA800CE01CE0A0D3083120313BA00FB30B9000E
:100DB800B90BDC2EBA0BDC2E0C2FA901A90A0A30BC
:100DC800A0000030A1005D08B900BA013908A200EE
:100DD8003A08A3000A128A1544250A128A118312B6
:100DE800031320080A128A15A1220A128A118312F3
:100DF8000313A601A60AA701A801A80A01300A122E
:100E08008A111E240A128A1183120313CE01D62EC8
:100E1800080083120313A300FF30A1002108A400D7
:100E2800602F0508A100200A1B2F0310A10CFF3E0C
:100E3800031D192F21080139A2002208A400792FC7
:100E48000608A100200A2A2F0310A10CFF3E031D4B
:100E5800282F21080139A2002208A400792F0708A9
:100E6800A100200A392F0310A10CFF3E031D372FC4
:100E780021080139A2002208A400792F0808A1003E
:100E8800200A482F0310A10CFF3E031D462F2108FE
:100E98000139A2002208A400792F0908A100200A1C
:100EA800572F0310A10CFF3E031D552F21080139B0
:100EB800A2002208A400792F2308A100A201220879
:100EC800003A0319682F792F2108003A0319152FC2
:100ED800013A0319242F033A0319332F013A03194E
:100EE800422F073A0319512F792F2408080083123B
:100EF8000313A200C42FBF30A00020089F057F3035
:100F0800A00020089F05BF30A00020088316031307
:100F18009F05E32FBF30A00020089F057F30A00069
:100F280020089F05831603131F17E32F1F177F3011
:100F3800A00020089F05BF30A000200883160313D7
:100F48009F05E32F1F177F30A00020089F05962FCD
:100F5800BF30A00020089F059F17BF30A0002008C1
:100F6800831603139F05E32FBF30A00020089F05B9
:100F78009F17962F1F179F17831603131F17E32F0B
:100F88002208A000A1012108003A0319CC2FE32F61
:100F98002008003A03197F2F013A03199A2F033AC0
:100FA8000319AC2F013A0319BE2F073A03198E2FE4
:100FB800013A0319A62F033A0319B82FE32F831216
:100FC8001F1408007E088A007F0882000A128A110E
:100FD800E6270A128A118000840A04087D0603198C
:100FE8000034FF0A0319FE0AEA2FFE3083120313A6
:080FF800A0002008900508008C
:10105200630008000B1608008B1708000B17080026
:10106200831603130C1408008312031310140800D0
:10107200BF3083120313A00020088B0508008312DF
:101082000313A1002108A0002008FC00080064004E
:101092008001840A04060319003404064928BF307B
:1010A20083120313A000200883160313810508008E
:1010B2007F3083120313A0002008831603138105D7
:1010C200080083120313A00103300A128A1181253A
:1010D2000A128A150800A03083120313AE0086306C
:1010E200AF0000300A128A15FC250A128A15080080
:1010F2003F3406345B344F3466346D347D34073408
:101102007F346F340034003402343C343C34FE30DB
:10111200F20072088312031390057108F20072083C
:101122008F007008F20072088E00101408008312FB
:1011320003131F08A00002300310A00CFF3E031D82
:101142009D282018A528A62898281F150800FE30DB
:1011520083120313A200220890052108A20022088C
:101162008F002008A20022088E00101408008312AB
:101172000313A601A60AA701A70AA801A80A01301B
:101182000A128A111E240A128A1583120313CE012F
:1011920008000A30831203134A020318D128D22806
:1011A200D8280A128A1196260A128A15EC280A30C1
:1011B2004A06031DDD28DE28E4280A128A15B82013
:1011C2000A128A15EC2814304A06031DE928EA2877
:1011D200EC28CA01EC2808008316031311158316A4
:1011E2000313110883120313A00002300310A00C92
:1011F200FF3E031DF7282018FF280029F0281408B5
:10120200A00007300310A00CFF3E031D0329201C81
:101212000B290C2910297F30A00020089405080012
:1012220083160313911483160313110883120313F5
:10123200A00001300310A00CFF3E031D1B29201843
:101242002329242914291408A00007300310A00C14
:10125200FF3E031D2729201C2F29302934297F30E6
:10126200A0002008940508000A128A1588210A1293
:101272008A1583120313A0012608013950380A1275
:101282008A151C220A128A158312031325080A12D0
:101292008A155B210A128A158312031327080A1280
:1012A2008A155B210A128A150A128A15ED200A1282
:1012B2008A15080083120313A1002108A000200848
:1012C200930068297F30A000200894055E29140845
:1012D200A00007300310A00CFF3E031D6B2920184D
:1012E2007329742963290C08A00003300310A00C91
:1012F200FF3E031D7729201C7F2980297429F7309E
:10130200A00020088C058316031311080800831619
:101312000313140883120313A00002300310A00C5D
:10132200FF3E031D8F29201897299829A529831686
:10133200031311081F39031D9F29A029A529111480
:101342001118A429A529A12983121408A000073085
:101352000310A00CFF3E031DA929201CB129B229AC
:10136200B6297F30A0002008940508000C1CBA2979
:10137200BB29CC297C080319BF29C029C6297C08AE
:101382000A128A1133200A128A15FE30F5007508F6
:10139200831203138C050B08F50001300310F50CC2
:1013A200FF3E031DCF29751CD729D829DC29FD3022
:1013B200F50075088B057908FF0078088A00770820
:1013C2008400760E8300FE0E7E0E0900AF30F00020
:1013D2003C30F1000A128A1588200A128A15062A60
:1013E200CD011B2ACD010130F3007308CA07013079
:1013F200F3007308FA0732307A06031D012A022A23
:101402001B2ACA01CF01CF0A1B2A831203134F08DA
:10141200F300F4017408003A0319102A1B2A730816
:10142200003A03191B2A013A0319F129033A031955
:10143200F3291B2A080083120313A4002408A10025
:1014420021072004A20022089300322A7F30A10043
:10145200210894052408A10021072004A2002208E3
:1014620093001408A10007300310A10CFF3E031DD6
:10147200352A21183D2A3E2A272A0C08A1000330CA
:101482000310A10CFF3E031D412A211C492A4A2AAE
:101492003E2AF730A10021088C0583160313110898
:1014A200831203132003031D572A582A5B2A83162B
:1014B20003139115080083120313A400872A303006
:1014C200A1002108850520083F39A10021088504D3
:1014D200A02A86012008A10021088604A02A8701EB
:1014E2002008A10021088704A02A88012008A10061
:1014F20021088804A02AF830A100210889052008C3
:101502000739A10021088904A02AA02A2408A100E1
:10151200A2012208003A03198F2A862A2108003ADA
:101522000319602A013A03196A2A033A0319702A35
:10153200013A0319762A073A03197C2A862A0800F7
:1015420083120313B8002E3084005030AA0004081E
:10155200AB000A30AC002A08840083130008AD00F7
:10156200AA0A2B0884002D088000AB0AAC0BAC2A17
:1015720038082E3E84000008AA002A08A000033082
:101582000A128A155C220A128A1583120313290889
:10159200031DCC2ACD2ADA2A0730AA002A08A00085
:1015A200A101A10A03300A128A1157220A128A15CE
:1015B200E52A0730AA002A08A000A10103300A1276
:1015C2008A1157220A128A15080000308312031367
:1015D200A800A9000A128A1571230A128A15831219
:1015E2000313AC002C08B00023303002031CFA2A8B
:1015F200FB2A012B4C303002031C002B012B062B43
:101602003C30AE000030AF000D2B3008AC00AD0115
:101612002C08AE002D08AF002E08AC002C08DE000E
:101622000A128A152F200A128A15AF308312031369
:10163200A0003C30A1000A128A15A8200A128A15BD
:101642000A128A1535200A128A1583120313CF0152
:10165200CF0A080083120313A501A6012008210462
:101662000319342B352B6C2BA701A70A432B01300E
:101672000310A00DA10DFF3E031D392B0130A40064
:101682002408A707A11F462B472B382B0130031034
:10169200A50DA60DFF3E031D482B21082302031DA5
:1016A200542B20082202031C572B582B5F2B200897
:1016B200A2022108031CA303A30225140130031074
:1016C200A10CA00CFF3E031D602B0130A702031DDD
:1016D2006B2B6C2B472B2608A1002508A0000800C5
:1016E2000A128A1588210A128A1583120313A0018D
:1016F2002908013950380A128A151C220A128A1541
:101702008312031328080A128A155B210A128A150A
:101712000A128A1511210A128A1583120313A001D3
:10172200A00A50300A128A151C220A128A150130A8
:101732000A128A159F250A128A1583120313AA0018
:101742002A08AB000A128A15ED200A128A15003007
:1017520083120313A500A600A7010A128A153521D8
:101762000A128A15831203132B080800831203132B
:10177200A900A801A80A2508A6002608A000290891
:101782000A128A110D270A128A15003A031DCA2B62
:10179200CB2BFA2B0D3083120313A700FB30A600CC
:1017A200A60BD12BA70BD12B831203132508A6005E
:1017B2002608A00029080A128A110D270A128A1582
:1017C200003A031DE52BE62BFA2B8312031325089F
:1017D200A6002608A00029080A128A110D270A125B
:1017E2008A15003A0319F62BF72BE62B8312031303
:1017F200A8018312031328080800831203131F0889
:10180200A20002300310A20CFF3E031D032C22187B
:101812000B2C0C2CFE2B831603131F0883120313AD
:10182200A20007300310A20CFF3E031D132C221C42
:101832001B2C1C2C252C1E08AA00831603131E0821
:1018420083120313A900472C831603131E08831265
:101852000313A20006300310A20CFF3E031D2C2C22
:101862002208A300A4011E08A500A6010310A50DCD
:10187200A60D0310A50DA60D23082504A700240814
:101882002604A8002708A9002808AA002A08A100FF
:101892002908A00008000A128A1157230A128A1581
:1018A200852CA50101300A128A15B7230A128A155E
:1018B200003A031D5D2C5E2C642C0A128A15E62266
:1018C2000A128A15852C0A128A1529200A128A15EB
:1018D200852C0A128A1196260A128A150A128A1170
:1018E2000C260A128A150A128A155E260A128A150F
:1018F200852C0A128A15CA200A128A150A128A151A
:10190200F0240A128A15852C831203134F08BB0098
:10191200BC013C08003A03198F2C852C3B08003A85
:101922000319522C013A03196A2C033A03197A2C2F
:10193200852C0A128A111228831203135B08031DD5
:10194200A32CA42CA92CFD30A00020089005AA2CC1
:1019520090145B080319AE2CAF2CD92CFB30A000DD
:10196200200890055C08A00001300310A00DFF3E86
:10197200031DB62C0310200DA10021089004D92CC0
:10198200DF30A00020089005EF30A000200890056D
:10199200EF2CDF30A000200890051016EF2C9016D7
:1019A200EF30A00020089005EF2C90161016EF2CB7
:1019B2005A08A000A1012108003A0319E12CEF2CDA
:1019C2002008003A0319C12C013A0319CA2C033A20
:1019D2000319D02C013A0319D62CEF2C08008312DC
:1019E2000313A501A50A01300A128A15B7230A12A8
:1019F2008A15003A031DFE2CFF2C102DFA018312CA
:101A02000313CA0124305E02031C082D092D432D45
:101A12000530DE025E08AD002D08DD00432D0230E8
:101A220083120313AD002D08A50001300A128A1596
:101A3200B7230A128A15003A031D202D212D302DBD
:101A4200FA0183120313CA014B305E0203182A2DD6
:101A52002B2D432D0530AD002D08DE070B2D8312F3
:101A62000313A50101300A128A15B7230A128A1537
:101A7200003A031D3D2D3E2D432D0A128A1596274D
:101A82000A128A15080083120313A601A31F4A2D06
:101A92004B2D522DA209A309A20A0319A30AA601DA
:101AA200A60AA11F552D562D5B2DA009A109A00A3A
:101AB2000319A10A200821040319602D612D902D1C
:101AC200A501A50A6F2D01300310A00DA10DFF3E47
:101AD200031D652D0130A4002408A507A11F722D46
:101AE200732D642D21082302031D792D2008220263
:101AF200031C7C2D7D2D832D2008A2022108031CAE
:101B0200A303A30201300310A10CA00CFF3E031D8E
:101B1200842D0130A502031D8F2D902D732D2608D3
:101B22000319942D952D9A2DA209A309A20A03192E
:101B3200A30A2308A1002208A000080083120313AD
:101B4200A1002108031DA62DA72DAE2DDF30A00078
:101B52002008831603139105B12D831603139116E2
:101B620083160313110883120313A000033003101A
:101B7200A00CFF3E031DB82D2018C02DC12DB12D84
:101B82001408A00007300310A00CFF3E031DC42D53
:101B9200201CCC2DCD2DD12D7F30A0002008940506
:101BA2001408A00006300310A00CFF3E031DD42D24
:101BB200201CDC2DDD2DE12DBF30A0002008940576
:101BC2001308A0002008A200831603131116831223
:101BD20003131408A00007300310A00CFF3E031DDE
:101BE200ED2D201CF52DF62DFA2D7F30A0002008BA
:101BF20094052208080083120313B500F030B000E8
:101C0200300894053503031D072E082E0D2E0B30C8
:101C1200B000300894040E2E9415BF30B000300886
:101C22008316031394058030831203132E061A3091
:101C320003192F06031D1E2E1F2E262E7F30B000E5
:101C42003008831603139405292E83160313941761
:101C5200831203132E08B0002F08B100B201B301A2
:101C620002300310B00DB10DB20DB30DFF3E031DD6
:101C7200322E3308A3003208A2003108A100300836
:101C8200A0000030A7007A30A6001230A500003074
:101C9200A4000A128A15C5260A128A158312031392
:101CA2002008FF3EB40034088316031393008715FF
:101CB2000716831203139416080083120313A50157
:101CC200A50A01300A128A15B7230A128A15003AA8
:101CD20003196C2E6D2E7E2E023083120313AD007B
:101CE2002D08A50001300A128A15B7230A128A1597
:101CF200003A031D7D2E7E2EB12E02308312031375
:101D0200AD002D08CF000530AD002D08A000A101C7
:101D120002300A128A1157220A128A1502308312DD
:101D22000313AD002D08A000A10102300A128A118E
:101D320057220A128A15073083120313AD002D08A9
:101D4200A000A10101300A128A1157220A128A1533
:101D5200831203135E08AD002D08DD00CE01C42EF0
:101D620083120313A50101300A128A15B7230A123E
:101D72008A15003A031DBE2EBF2EC42E0A128A15E2
:101D820096270A128A150800003083120313AC004A
:101D92000030AB000030AA000030A9002308220462
:101DA200210420040319D62ED72E242FAD01AD0A0B
:101DB200E72E0130A8000310A00DA10DA20DA30D66
:101DC200A80BDC2E0130A8002808AD07A31FEA2EBD
:101DD200EB2EDA2E0130A8000310A90DAA0DAB0DCF
:101DE200AC0DA80BED2E23082702031D022F22089B
:101DF2002602031D022F21082502031D022F20089F
:101E02002402031C052F062F152F2008A4022108E7
:101E1200031C210FA5022208031C220FA60223087D
:101E2200031C230FA702291401300310A30CA20CD8
:101E3200A10CA00CFF3E031D162F0130AD02031DA5
:101E4200232F242FEB2E2C08A3002B08A2002A08F4
:101E5200A1002908A000080083120313A601A11FF4
:101E6200332F342F3B2FA009A109A00A0319A10A7D
:101E7200A601A60AA31F3E2F3F2F482FA209A3099E
:101E8200A20A0319A30A0130A4002408A606A70186
:101E9200A8012008210403194F2F502F872FA501D5
:101EA200A50A5E2F01300310A00DA10DFF3E031DF8
:101EB200542F0130A4002408A507A11F612F622F0F
:101EC200532F01300310A70DA80DFF3E031D632FF2
:101ED20021082302031D6F2F20082202031C722FE8
:101EE200732F7A2F2008A2022108031CA303A30246
:101EF200271401300310A10CA00CFF3E031D7B2F01
:101F02000130A502031D862F872F622F2608031991
:101F12008B2F8C2F912FA709A809A70A0319A80AAA
:101F22002808A1002708A000080083120313A601B5
:101F3200A60AA701A70AA801A80A01300A128A1153
:101F42001E240A128A15023083120313AB002B08D7
:101F5200A000A10102300A128A1157220A128A1520
:101F6200053083120313AB002B08A000A10102303D
:101F72000A128A1157220A128A1507308312031392
:101F8200AB002B08A000A10101300A128A115722CE
:101F92000A128A15003083120313A500A6005E08F8
:101FA200AB002B08A7000A128A1535210A128A15DE
:101FB2000A128A1539200A128A150A128A11F92779
:101FC2000A128A1583120313CE01CD01C701C8017B
:101FD200CC01CB01CA01FA01C901AC012C083D3E7A
:101FE2008400831380010130AB002B08AC070A3058
:0E1FF2002C02031CFD2FFE2FEF2FCF01080045
:02400E00713F00
:00000001FF
